:100000000C947F010C94B7010C94B7010C94B701C8
:100010000C94B7010C94B7010C94B7010C94B70180
:100020000C94B7010C94B7010C948D180C946019C2
:100030000C94A3130C94B7010C94B7010C94B70162
:100040000C94B7010C94B7010C94B7010C94B70150
:100050000C94B7010C943B140C94B7010C94B701A9
:100060000C94B7010C94B7010C94B7010C94B70130
:100070000C94B7010C94B7010C94B7010C94B70120
:100080000C94B7010C94B7010C94B7010C94B70110
:100090000C94B7010C94B7010C94B7010C94B70100
:1000A0000C94B7010C94B7010C94B7012B00140009
:1000B0001A000800150017001C0018000C001200A0
:1000C00013002F0030002A00E00004001600070093
:1000D00009000A000B000D000E000F003300340071
:1000E00028000000E1001D001B00060019000500AB
:1000F0001100100036003700380035002252000091
:10010000000000000000E300E2002C002C002C00A6
:100110002152E600000000000000000029001E003F
:100120001F002000210022002300240025002600BB
:1001300027002D0238024C003900010001000100A7
:10014000010001000100A900AA00AC00AB00AD0055
:100150000100000001000100010001000100010098
:1001600001000100500052004F0051004600000005
:100170000000000000000100010001002800010053
:1001800001000100000000000000000001003A0032
:100190003B003C003D003E003F004000410042006B
:1001A000430044004500010001000100010001007E
:1001B00001000100010001000100680069006A00FF
:1001C0000100000001000100010001000100010028
:1001D0000100010001000100010001000100000018
:1001E000000000000000010001000100010001000A
:1001F0000100010000000000000000001403540092
:10020000750072006B0069007300680034003700ED
:1002100000001A0365006E00670069006E0062004E
:1002200061006C0069006B0063006900000004035A
:10023000090409023B00020100A0FA0904000001C0
:100240000301010009211101000122440007058179
:100250000308000109040100010300000009211145
:10026000010001223B00070582032000011201006A
:100270000200000008EDFE0302000101020001057A
:10028000010906A1018506050719E029E7150025E2
:10029000019508750181020507190029EF15002550
:1002A0000195F0750181020508190129059505756B
:1002B000019102950175039101C005010906A10193
:1002C000050719E029E71500250195087501810248
:1002D0009501750881010507190029FF150026FF02
:1002E00000950675088100050819012905150025E6
:1002F00001950575019102950175039101C01124C5
:100300001FBECFEFDAE0DEBFCDBF04B603FE18C0DC
:1003100080912B0290912C02A0912D02B0912E027F
:100320008730904BA740B04B59F410922B0210929B
:100330002C0210922D0210922E02E0E0F8E30995B3
:1003400011E0A0E0B1E0EAECF7E302C005900D9205
:10035000A232B107D9F722E0A2E2B1E001C01D92BA
:10036000AB32B207E1F70E9475100C94B01B0C94ED
:1003700000008330B8F46430A8F44E3098F4E42FD1
:10038000F0E09EE0699FE00DF11D112498E3899F44
:10039000E00DF11D1124EE0FFF1FE455FF4F859175
:1003A0009491089581E090E008950E94B901089524
:1003B00081E008950E94D801089581E008950E9487
:1003C000D80108950E94DF01089508950E94E50173
:1003D0000895A6E0B0E0EFEEF1E00C94201B498315
:1003E0005A839E833091290189819A8131111AC0E3
:1003F0003E81332399F0222389F00E942907182F88
:10040000682F89819A810E94050769817A81812FED
:100410000E94150E2696E3E00C943C1B0E941707E1
:10042000182FF3CF0E94290769817A81F1CFFC014F
:10043000262F4081518162817381848195810E9440
:10044000E9010895CF93DF93D82FC92F61E00E946F
:1004500017026D2F7C2F0E94DA01DF91CF91089552
:10046000CF93DF93D82FC92F60E00E9417026D2F22
:100470007C2F0E94E601DF91CF91089581E00895DD
:100480000E943E020895CF93C82F0E94D7058C2F5B
:100490000E9440022FEF84E39CE021508040904076
:1004A000E1F700C00000CF91089581E00E9443026F
:1004B0000E945F14089580E00E9443020E9483140A
:1004C00008950F931F93CF93DF938C0161E00E94F7
:1004D0001702EC01B8010E94E2018823B1F1B801D2
:1004E000CE010E94FD11882381F1B801CE010E9446
:1004F000B210882351F1B801CE010E9487108823E1
:1005000021F1F8018581882381F0CA35FCE7DF07F6
:1005100039F178F4C130ECE7DE07F9F0C330FCE7DD
:10052000DF07C9F0C115DC4771F0C8010E94DD0189
:100530000DC0CB35ECE7DE07B1F0CC35DC47A9F7D1
:100540000E945D0BF2CF0E94550280E0DF91CF91B7
:100550001F910F9108950E946F0B0E945B02F5CFCF
:100560000E94670BE2CF0E946B0BDFCF0E947F13CC
:100570000E94DD0208950E94E1020E948413089502
:10058000089581E008950895CF93DF93D82F0E94B6
:10059000C102C82F882319F08D2F0E94C3028C2F0F
:1005A000DF91CF9108950895CF93C82F0E94C00284
:1005B0008C2F0E94C402CF91089580E00E94D40243
:1005C00008950E9443120E94D4020895CF930E947E
:1005D0004312C82F809124018C1779F0C093240115
:1005E0000E940F14609325017093260180932701C8
:1005F000909328018C2F0E94D402CF910895ADE0F2
:10060000B0E0E5E0F3E00C94211B488759876A8746
:100610007B878C879D8791110E94680A1F8286E0E4
:10062000FE013896DE01119601900D928A95E1F750
:100630008D8181110DC029813A814B815C816D8151
:100640007E818F810E94AE092D96E2E00C943D1BC5
:10065000CE0101960E9422028111EDCFF5CFFC015F
:100660008481813021F4808191810E945B0708950B
:10067000CF93C82F882399F08CEF8C0F813A88F4A0
:100680008C2F0E948B12882329F08C2F0E9430130C
:100690000E94000B8C2F0E9419130E94000BCF9117
:1006A000089580E28C0F8830D0F7C77081E001C0D8
:1006B000880FCA95EAF70E94490AEFCF882341F0D4
:1006C0009CEF980F913A28F40E9430130E94000B7F
:1006D000089590E2980F9830D8F7877091E001C0A4
:1006E000990F8A95EAF7892F0E944F0AEFCF1F933F
:1006F000CF93DF93182FEB010E943803209739F432
:10070000812F0E945E03DF91CF911F9108958FE9A1
:100710009FE00197F1F700C000002197EFCF60E064
:1007200070E0893311F460E570E00E94770308956A
:10073000882321F00E94490A0E94000B0895882313
:1007400021F00E944F0A0E94000B0895A0E0B0E043
:10075000ECEAF3E00C941B1B6C01D62FC72FFC01B5
:100760001581068102950F700E943E0AE82E8823AB
:10077000F9F0E12E1123E1F08C2F807F803461F0BD
:1007800080E28D0F8830D0F18C2F807E803221F472
:10079000D230A0F1002391F18091090282FF2EC096
:1007A00082E00E94300B0E943E0A91E0E82EE9268A
:1007B0009C2F92959F70983009F4C9C008F592302B
:1007C00080F1925F9F70923008F45CC0EE2089F057
:1007D0000E943A0A80FD0DC0F60115820E94340A7B
:1007E0000E946206C6010E94AA050E94340A0E9465
:1007F0007206CDB7DEB7E8E00C94371BE12CD8CFFA
:10080000993009F41BC19A5F9F709230F8F6D23F7D
:1008100009F025C18C2F8F7111111EC10E94620633
:10082000C5C00C2F0F70C03110F00295007F11234E
:1008300099F0002359F080E28D0F883010F0D1112B
:1008400007C0802F0E94490A0E94000B8D2F3BC0D9
:10085000802F0E945A0AF8CF8D2F0E945E0300233A
:1008600009F4B4CF80E28D0F883010F0D11104C0AC
:10087000802F0E944F0A03C0802F0E94600A0E94AE
:10088000000BA4CFFC2FFF70FF2EC07FC03219F0E9
:10089000F29480EFF822DD2341F0D130D1F1112321
:1008A00009F444C00023F1F0D1CF8091090282FD08
:1008B00015C0112359F0FF2029F08F2D0E94490AFD
:1008C0000E94000B80E00E94380380CF80E00E94ED
:1008D0005E03FF2009F47ACF8F2DCBCF112369F06F
:1008E000011104C08F2D0E94980370CF013009F0D0
:1008F0006DCF8F2D0E94800A69CF011167CF8F2D98
:100900000E949F038F2D0E948C0A8F2D0E946F0AD8
:100910005DCF112321F0063008F058CFE3CF05302A
:1009200008F054CF8F2D0E949F0350CF0023D1F3A6
:10093000D93349F42FEF87EE93E021508040904067
:10094000E1F700C000008D2F0E945E033FCF8C2F87
:100950008370811139C0111129C04D2F42954695E0
:100960004770440F440F2D2F2F7030E0042E02C02B
:10097000220F331F0A94E2F780E090E0D4FF09C011
:100980008FE090E002C0880F991F4A95E2F78095AA
:100990009095C695C695C370822B932BC23071F08B
:1009A000C33079F0C13039F00E9432060E94431200
:1009B0000E94D4020BCF0E942906F8CF0E943B066A
:1009C000F5CF0E942606F2CF112361F1C0FFEECFD2
:1009D0004D2F429546954770440F440F2D2F2F7091
:1009E00030E0042E02C0220F331F0A94E2F780E0A9
:1009F00090E0D4FF09C08FE090E002C0880F991FFB
:100A00004A95E2F780959095C695C695C370822B5E
:100A1000932BC23069F0C33071F0C13031F00E94C5
:100A20009D06C4CF823010F2D3CF0E949406BECF71
:100A30000E94A606BBCF0E944A06B8CFCF701123F2
:100A400039F08C2F0E9462068D2F0E949803AECF42
:100A50008D2F0E949F038C2F0E947206A7CFD33F39
:100A600070F4D03FB9F0D13F79F1112309F449C0B6
:100A7000002309F443C08D2F0E94380397CFD33F42
:100A8000A9F0D43FE9F01111F3CF011147C08C2F29
:100A90008F71E2CF112341F0053008F087CF8C2F02
:100AA0008F710E94840682CF0530F7CF112329F081
:100AB0008C2F8F710E94560679CF0E94510676CFF7
:100AC0008091090282FD05C08C2F8F71112321F2C4
:100AD000A5CE112349F0CF718C2F0E94620663E0EE
:100AE0008C2F0E94120B62CF81E00E94300B0230EB
:100AF00008F45CCF82E00E94300B58CF8C2F8F71AE
:100B00008DCE002321F2D93349F4EFEFF7EE23E045
:100B1000E150F0402040E1F700C000008D2F0E941E
:100B20005E0344CF0F931F93CF93DF93EC01688153
:100B300079818D810E9468078C010E94AF060E9416
:100B40002506B801CE010E94A603DF91CF911F9127
:100B50000F910895CF93DF93EC018C81882399F056
:100B6000CE010E946102811111C00E943E0A8823B9
:100B700051F08D81882339F08091090282FF03C0F2
:100B800082E00E94300BDF91CF910895CE010E9448
:100B90009205CE010E943002F6CF0E94680A0E94A0
:100BA000000B08950E9447130E94CD0508950E94EE
:100BB000570A0E94D2050895282F92959F7096306B
:100BC00091F060F4925F9F70923030F481E0203FAA
:100BD00079F030F4283E30F080E008959A5FF3CF4A
:100BE000243FD1F7089581E0283EE0F3213FF9CF7B
:100BF0000895FC018481882339F0808191810E94CD
:100C00005B070E94DC05089580E00895A6E0B0E04F
:100C1000ECE0F6E00C94211B2696E2E00C943D1BE0
:100C2000A7E0B0E0E6E1F6E00C94211B2796E2E0B5
:100C30000C943D1B08950E941A0608950E941B06FD
:100C40009093490180934801089508950E941E06DB
:100C500008952091480130914901822B932B0E94E5
:100C60001E06089520914801309149018223932363
:100C70000E941E0608952091480130914901822763
:100C800093270E941E0608950E941A0608950E9446
:100C9000440608950E9447069093470180934601B9
:100CA000089580E090E00E944A06089521E030E037
:100CB000A90102C0440F551F8A95E2F7CA010E949C
:100CC0004A06089521E030E002C0220F331F8A95C2
:100CD000E2F78091460190914701822B932B0E946D
:100CE0004A06089521E030E002C0220F331F8A95A2
:100CF000E2F720953095809146019091470182233B
:100D000093230E944A06089521E030E002C0220F9A
:100D1000331F8A95E2F7809146019091470182271F
:100D200093270E944A060895209146013091470179
:100D3000822B932B0E944A06089520914601309100
:100D40004701822393230E944A0608952091460179
:100D500030914701822793270E944A0608950895FB
:100D60009B01677091E001C0990F6A95EAF763E013
:100D7000369527956A95E1F7220F331F220F331F0F
:100D8000FA01E20FF31F40E050E0682F70E081911C
:100D9000DF0111979B01042E02C0369527950A9416
:100DA000E2F7217021952827292328272C934F5FCC
:100DB0005F4F4430510559F708959C01982F977063
:100DC00083E0369527958A95E1F7220F331F220F8E
:100DD000331FFB01E20FF31F40E050E080E0219160
:100DE00030E0092E02C0369527950A94E2F721706B
:100DF0003327042E01C0220F0A94EAF7822B4F5F9B
:100E00005F4F4430510559F70895282F862F9430AD
:100E100068F42E3058F4622F70E02EE0929F600D3F
:100E2000711D11244AE251E00E94B0060895292F55
:100E3000943068F48E3058F490E06AE271E03EE05D
:100E4000239F800D911D11240E94DD06089580E0EE
:100E50000895A0E0B0E0EFE2F7E00C941A1B8C01DB
:100E6000E0904601F090470180914801909149013E
:100E7000E82AF92ACFE0D0E0CC24C394D12CC601D3
:100E80000C2E02C0880F991F0A94E2F78E219F2131
:100E9000892B49F4219798F7B12C8B2DCDB7DEB76C
:100EA000E9E00C94361BBC2EB8018C2F0E94210E59
:100EB000019781F3F2CFCF93DF93D82FC92F0E94F0
:100EC00029076D2F7C2F0E94210EDF91CF9108956D
:100ED0001F93CF93DF93162FD72F9091290199233A
:100EE00041F0862F972F0E945B07DF91CF911F91D2
:100EF0000895882381F0862F972F0E942907C82FF5
:100F0000682F812F9D2F0E940507612F7D2F8C2F29
:100F10000E94210EEACF862F972F0E941707C82F15
:100F2000F4CF0F931F93CF93E0914A01C7E08091D4
:100F30004B018E1304C0CF911F910F9108950E2F76
:100F400010E0CE9FF0011124E45BFE4F208131813F
:100F5000428153816481758186810E941006F80167
:100F60003196E770E4CF2091840130918501409162
:100F7000860150918701609188017091890180916B
:100F80008A010E941006089580918A01803178F4C8
:100F900080918901882359F0E0914A0120914B0109
:100FA000309185014091840157E02E1301C00895CE
:100FB0006E2F70E05E9FF0011124DF01A45BBE4F35
:100FC00014968C911497882361F111968C91119746
:100FD000831327C08C91841324C015968C91159788
:100FE00081111FC012968D919C91A0918601B091A4
:100FF00087018A1B9B0B883C910598F480918A019C
:101000008F70806180938A01EE5AFE4F80818F70CD
:101010008061808384E891E00E94AA050E94910784
:101020000895FB013196E770C0CFE0914A0190919D
:101030004B0127E0E91302C080E00895AE2FB0E035
:101040002E9FF0011124E45BFE4F3181361306C060
:101050003081381303C03581341304C0FD0131964B
:10106000E770E8CF81E008958F929F92AF92BF9290
:10107000DF92EF92FF920F931F93CF93DF93CDB741
:10108000DEB72D970FB6F894DEBF0FBECDBF8C0133
:1010900086E0F801DE01189601900D928A95E1F73D
:1010A000F801E080F580A280B380848194E8892EE5
:1010B00091E0992E9091880191111BC0882309F429
:1010C000FCC0FF2009F43DC1C8010E94F905882336
:1010D00009F437C187E0F801D40101900D928A9597
:1010E000E1F7C4010E942F030E94C4070E94B307C6
:1010F000E4C0D09089012091860130918701A5013B
:10110000421B530BDD2009F4DBC0483C510508F0BD
:10111000A6C0882309F4D1C0909185019180809167
:101120008A01803108F06BC0991228C09091840127
:101130009E1124C0F1105DC08F70806180938A0180
:101140000E94B30784E891E00E94AA0580918A0179
:10115000F8018683F12C8F2D2D960FB6F894DEBF03
:101160000FBECDBFDF91CF911F910F91FF90EF90F8
:10117000DF90BF90AF909F908F900895F11039C08D
:1011800040E0692D8E2D0E94150840E0692D8E2DBE
:101190000E941508F82E8111DDCF888599850E945F
:1011A0005B07292F22952F70903450F49F702230C6
:1011B00080F0992399F0F8019681903178F4CBCFA3
:1011C0002A5F2F70223078F0C8010E94AA05FD2CFA
:1011D000C2CF992319F0882309F4BDCF805E8830EF
:1011E00008F4B9CFF1CF803F08F4B5CF815F8230EA
:1011F000F7CF80918A01816080938A01ABCF9912E9
:1012000007C0909184019E1103C0FF2009F479C0AA
:10121000C8010E94F905882309F493C0FF2009F44E
:1012200090C080918A01803288F0209184013091B1
:1012300085013A832983BC82AB82909188019D838A
:101240001E828F83CE0101960E94AA0587E0F801D5
:10125000A4E8B1E001900D928A95E1F745CF909115
:101260008A019031A0F4488559856A857B858C85F3
:101270009D850E94060684E891E00E94AA0587E009
:10128000F40111928A95E9F70E94B30763CF88238E
:10129000A1F02091850181812813BACF809184012A
:1012A0008E11B6CFF110B4CF9683C8010E94AA0563
:1012B00087E0F40111928A95E9F7FF24F3944BCF6C
:1012C000483C510508F041C08823B9F3FF20C9F11B
:1012D00090918501818198132AC0809184018E119B
:1012E00026C080918A0180FD19C08031B8F08683C4
:1012F000807F803F39F08681982F907F905F8F703C
:10130000892B8683C8010E94AA0587E0F801A4E81A
:10131000B1E001900D928A95E1F7E8CE87E0F801FF
:10132000A4E8B1E001900D928A95E1F7C6CFC8011B
:101330000E94F90581118ACF80918A018160809392
:101340008A01C8010E94AA05B8CF488559856A85D7
:101350007B858C859D850E94060691CFAEE0B0E02E
:10136000E4EBF9E00C94201B288739874A875B87D8
:101370006C877D878E87CE0108960E94340888236B
:10138000B1F06C85662341F0288539854A855B85F7
:101390007D858E850E94100617E080914A0190910C
:1013A0004B0189133EC02E96E3E00C943C1B87E072
:1013B000FE013896DE01119601900D928A95E1F7B3
:1013C00020914B0140914A018C85882329F330E01C
:1013D000C90101968770992750E08417950799F005
:1013E00097E0929FD001939FB00D1124A45BBE4F54
:1013F000FE01319601900D929A95E1F780934B0191
:101400000E949107C9CF0E94D70510924B011092FC
:101410004A0187E0E4E8F1E0DF011D928A95E9F7EF
:10142000BBCF189FC0011124845B9E4F0E943408DB
:10143000882309F4B8CFE0914A011E9FF0011124DE
:10144000E45BFE4F2081318142815381648175814B
:1014500086810E94100680914A0190E00196877073
:10146000992780934A0199CF8091B30186958695FB
:10147000869508958091B301877008959091B30186
:10148000977081E0911101C080E008958091DF01A3
:1014900008959091DF01982B9093DF010895982F84
:1014A00090958091DF0189238093DF010895109248
:1014B000DF0108959091DE01982B9093DE0108954D
:1014C000982F90958091DE0189238093DE01089505
:1014D0001092DE01089508950E946B0A089590917C
:1014E000B401292F2823222331F08095892380936A
:1014F000B4010E946C0A089508950E947C0A089520
:101500009091B501292F2823281729F0982B909323
:10151000B5010E947D0A08959091B501292F2823D5
:10152000222331F0809589238093B5010E947D0AA2
:1015300008958091B501882329F01092B50180E0CB
:101540000E947D0A0895CF93DF93C091DF018091BF
:10155000DE01C82BD091B501DD2331F00E946A1263
:1015600081110E94990ACD2B8C2FDF91CF91089584
:10157000CF93DF93C0910201D09103010E94A30A8F
:101580008883C0910201D091030148E050E06BEAEA
:1015900071E0CE010E94481B892B59F088E0FE01C2
:1015A000ABEAB1E001900D928A95E1F7CE010E947D
:1015B0005012DF91CF910895CF93DF93C091000136
:1015C000D09101010E94A30A8983C0910001D091AA
:1015D000010140E250E06BE871E0CE010E94481B3F
:1015E000892B59F080E2FE01ABE8B1E001900D9249
:1015F0008A95E1F7CE010E945B12DF91CF910895A9
:1016000080910E01882339F08091080287FF03C082
:101610000E94DC0A08950E94B80A089508950E9465
:101620000E0B08959091090292FF11C098E0899FD6
:1016300090011124622B6093B3010E946206809195
:10164000B3018695869586950E940F0B08950E949A
:10165000620608951092B30180E00E940F0B089576
:101660009091B301809589238093B301282F27702F
:1016700021110DC0891759F09091090292FF07C0FE
:101680008695869586950E9472060E942A0B08957B
:101690009091090292FB222720F9281769F080FB1C
:1016A00092F99093090280910802909109020E9498
:1016B000900B82E00E94300B08958091090282FB1A
:1016C000882780F991E089270E94480B089581E0DE
:1016D0000E94480B089580E00E94480B08956FEF28
:1016E0007FEF80E090E00E949A1B089580E090E0F8
:1016F0000E94661B9C0181E0263E3E4F09F080E07F
:10170000089582E090E00E945E1B089583E090E0DF
:101710000E945E1B089584E090E00E94661B08957D
:10172000BC0184E090E00E949A1B0895AB01BC01CB
:101730008FE090E00E948E1B0895AB01BC0183E115
:1017400090E00E948E1B089560E070E0CB010E9443
:101750009D0B089560E070E0CB010E94960B0E9403
:10176000A40B0895A8E0B0E0E8EBFBE00C94211B8B
:1017700066EE7EEF80E090E00E949A1B60E082E0DF
:1017800090E00E947C1B81E090E09093490180935F
:10179000480161E083E090E00E947C1B60E074E11E
:1017A00084E090E00E949A1B60E086E090E00E9456
:1017B0007C1B60E087E090E00E947C1B40E050E0F2
:1017C000BA0188E090E00E948E1B60E084E290E025
:1017D0000E947C1B60E087E190E00E947C1B60E03F
:1017E0008CE090E00E947C1B60E08DE090E00E9425
:1017F0007C1B19821A821B821C821D821E821F8200
:10180000188648E050E068E170E0CE0101960E9441
:101810006C1B40E050E0BA0180E290E00E948E1B19
:101820000E94AA0B2896E2E00C943D1B0E94B20B8A
:101830000895682F8EE090E00E947C1B0895A6E03A
:10184000B0E0E5E2FCE00C941F1B0E9403148C0145
:101850008091E0019091E1018017910779F0198260
:101860001A820E940314BC0149815A8180E090E0F1
:101870000E94FF021093E1010093E0012696E4E04C
:101880000C943B1B0E940F146093EE017093EF01C8
:101890008093F0019093F1016093EA017093EB0162
:1018A0008093EC019093ED010895089508950E94AE
:1018B000550C089508950E945A0C089589E19FE0FF
:1018C0000E9482100E94560C0E94570C089581E0DD
:1018D00008950E94670C08950E94670C089508956A
:1018E00008950E946F0C0E94700C08950E94760B60
:1018F000811102C00E94160C0E94810B8093F2019C
:101900000E948B0B90930902809308020E94860B21
:1019100090E00E94260680914601909147010E9426
:10192000470608950E94FA130E94D20F0E94760C77
:101930000E94D3020E945B0C0895A6E0B0E0E3EAA7
:10194000FCE00C94151B0E94690C811108C00E94D8
:101950001F0C0E94E6022696EEE00C94311B0E94BA
:10196000E80F22EE822E21E0922E640110E0F601B3
:10197000E190F1906F01812F0E94230F1F5F1430BF
:1019800009F44DC0E816F90691F38091F20181FD4A
:101990000E942C0F0E946C0C782EF12C662463940C
:1019A0008F2D0E94230F8C01F401A190B1904F0163
:1019B0008A159B0569F1A826B926E12CCC24C3948D
:1019C000D12CC5018C219D21892BC1F07720B1F04C
:1019D000E982FA820E9403149C838B836D8221E04A
:1019E000C8018C219D21892B09F420E049815A816D
:1019F0006B817C818D81922F0E94FF02E394CC0C3D
:101A0000DD1CFEE0EF12DDCFF4013297118300837D
:101A1000F39484E0F812C4CF0E94420C9ACFE816E7
:101A2000F90609F0B2CF93CF1F93CF93DF930E94B3
:101A3000260EEC01811522E5920708F04DC08115B4
:101A400040E5940708F0C5C0883E910588F08115EF
:101A500050E4950728F199270E94260ECC27DF70C5
:101A6000C82BD92BD06ACE01DF91CF911F91089559
:101A7000803E9105C0F7853A910550F4049798F798
:101A800081E0219709F080E0C82F80E0D82FEBCFCC
:101A90008D5C9109D065439730F3C0E0D0E0E3CF8F
:101AA000C11590E2D90708F0ADC0CE019A95811515
:101AB0009F4198F78D2F0E94CA0E182FCE019927AB
:101AC0000E94260E212F30E0322F2227E901CC2759
:101AD000DF71C82BD92BC7CF803842E59407C0F5FA
:101AE000803652E5950708F055C0C03482E5D80726
:101AF000B0F08C2F86958695877020E2829FC0017A
:101B00001124C37021E030E0A90102C0440F551F29
:101B1000CA95E2F7EA01C82BD92BDC68A4CFC03202
:101B200052E5D50780F58C2F8695869520E2829F19
:101B3000C0011124C37021E030E0A90102C0440FAC
:101B4000551FCA95E2F7EA01C82BD92BDD688BCF68
:101B5000803C52E5950758F48F71C03AD24578F52C
:101B600090E0982F8827EC01C46FD06A7CCF805C0E
:101B70009245809708F091CFDC2FCC27CC27DF71DE
:101B8000C06FD06A70CFCF71D0E0DC2FCC27C16F8F
:101B9000D06A69CF86958695877020E2829FC001C2
:101BA0001124C37021E030E0A90102C0440F551F89
:101BB000CA95E2F7EA01C82BD92BDA6854CF0E9404
:101BC000CA0EC82FD0E0DC2FCC27CC27DF71D06223
:101BD0004ACF8F710E94CA0E65E0D695C7956A9567
:101BE000E1F7CF70D0E0DC2FCC27282F30E084FF46
:101BF00005C054E0220F331F5A95E1F7C22BD32BB7
:101C0000D06931CF8D2F8F710E94CA0E182FCE014F
:101C100099270E94260E212F30E0322F22272227DB
:101C20003F71282B392BE901D2CF462F672F743013
:101C300028F44E3018F40E94D501089580E090E019
:101C400008950E94150E0E94140D0895803E91057E
:101C5000D1F1C8F48133910509F47FC048F4893289
:101C6000910509F46FC08A32910509F47DC0089589
:101C700089339105E1F082389105C9F085339105EA
:101C800009F45BC00895843E9105D1F148F4823E89
:101C9000910531F1833E910541F181EE90E0089587
:101CA000863E9105C1F1873E9105E1F108952091AD
:101CB00008022370211165C02091090223FF14C07E
:101CC00089E290E008952091080220FD43C0309100
:101CD000090230FF09C024FF4EC080E090E0089563
:101CE0002091080222FDF7CF08952091080222FDDD
:101CF00045C03091090230FD44C024FFF5CFEDCF3F
:101D00002091090221FFF0CF8091080284FDE5CFE8
:101D100087EE90E008952091080223FFE5CF24FD8F
:101D2000DCCFF6CF2091080223FD2EC030910902AE
:101D300031FFE3CF84EE90E008952091080225FF63
:101D4000D3CFBECF2091080225FD21C020910902EA
:101D500023FFCACF89E390E008952091080226FF6F
:101D6000C3CF8AE290E008952091080226FFBCCFFD
:101D700081E390E0089583EE90E0089582EE90E094
:101D8000089580EE90E0089586EE90E0089585E352
:101D900090E0AACF9091080292FF10C041E0282F56
:101DA0002471243009F040E031E0282F28712830D8
:101DB00009F030E0431711F02CE0822793FF10C0A8
:101DC00041E0282F2471243109F040E031E0282F30
:101DD0002871283109F030E0431711F02CE08227F8
:101DE0003091090230FF10C051E0282F21712130BD
:101DF00009F050E041E0282F2871283009F040E038
:101E0000541711F029E0822731FF10C041E0282F3C
:101E10002171213109F040E031E0282F287128316B
:101E200009F030E0431711F029E0822794FD877E06
:101E3000089580E0089508950E941B0F0895089565
:101E40000E941F0F0895E82FF0E0EE0FFF1FEE5ED7
:101E5000FD4F808191810895089580EA8A95F1F778
:101E6000089500C008950E942D0F0895F894E82F5A
:101E7000E295EF70F0E041A18F7021E030E0B90110
:101E800002C0660F771F8A95E2F7CB01962F9095D7
:101E9000942391A392A1892B82A378940895CF9340
:101EA000DF9385EF0E94360F86E30E94360F84E3AE
:101EB0000E94360F85E30E94360FCFE0D1E0899172
:101EC0008F3F11F00E94360F81E0CD31D807B9F76E
:101ED000DF91CF910895A0E0B0E0E1E7FFE00C943E
:101EE0001A1BEC01B62E062F10E0C801835E9E4F30
:101EF0007C01FC0180818F3F09F44FC0F894E82FEA
:101F0000E295EF70F0E091A18F7021E030E001C028
:101F1000220F8A95EAF7892F822B81A382A120952F
:101F2000282322A378940E94310FEFE0F1E041E0F2
:101F300050E0C12CD12C21912F3F89F0A22FA295E6
:101F4000AF70A05EB0E08C9190E02F7002C09595CC
:101F500087952A95E2F781709A01882311F020E095
:101F600030E0C22AD32A440F551F81E0ED31F80733
:101F700011F7F70180818F3F11F00E94360F61E069
:101F8000C114D10409F460E08B2D0E94330F000FBF
:101F9000111FC00FD11FD982C882CDB7DEB7E9E0CB
:101FA0000C94361B0E944F0F88E0E2E1F2E0DF0163
:101FB000982F1D929A95E9F7EAE0F2E0DF011D9271
:101FC0008A95E9F784E00E9425100E941C0F08956D
:101FD000A8E0B0E0EEEEFFE00C941E1BFE0131968F
:101FE00088E0DF011D928A95E9F710E0FE2E0F2FA1
:101FF000612F8F2D902F0E946B0F1F5F1430C1F740
:1020000048E050E06F2D702F8AE092E00E94481B5C
:1020100021E0892B81F420E044E062E172E08AE073
:1020200092E00E942610182F0E94200F812F2896E0
:10203000E5E00C943A1B88E0EF2DF02FAAE0B2E027
:1020400001900D928A95E1F7E7CF0895A0E0B0E006
:10205000ECE2F0E10C941B1BD82EE92EF62ED72FC4
:10206000042FC22F222379F081E08093F5010E9492
:1020700003149093F4018093F30180E0CDB7DEB7B1
:10208000E8E00C94371BC090F501CC20B1F38091AF
:10209000F3019091F4010E942C14059770F310E065
:1020A000000F111FA8016D2D7E2D8F2D9D2F0E94D9
:1020B000481B892B41F0A8016D2D7E2D8F2D9D2F62
:1020C0000E94551BCC2D1092F5018C2FD7CF0E946A
:1020D000E5150E94920C0E94F21508950E94F715D2
:1020E0000E949D0C0E94111608950E949C130E944C
:1020F000CB150E945E0C0E9467100E946E100E9419
:10210000710CFBCF90932301809322010895CF930C
:10211000DF93EB0186319C4719F50E94460A9D81A9
:102120009923A1F08A7A91E0811101C090E0909307
:10213000F601882349F085E30E9419130E94000BE1
:1021400080E0DF91CF91089589E2F6CF8091F6018A
:10215000882321F085E30E943013F0CF89E2FBCF82
:1021600081E0EFCFCF93DF93EC01FB0185818823E2
:1021700009F4D2C09E0130572332310508F0B2C0B5
:102180000E948B0B9093090280930802FE01E1509C
:10219000F047E232F10520F4EE54F44E0C940B1BA0
:1021A0008091080281608093080293C080910902A7
:1021B0008860809309028DC0809108028260F3CF0D
:1021C000809108028460EFCF809108028860EBCF95
:1021D000809109028160EDCF809109028260E9CF90
:1021E000809108028061DFCF809108028062DBCF9E
:1021F000809108028064D7CF0E94D70580910802A1
:102200008068D1CF809108028C60CDCF8091090287
:102210008360CFCF809108028E7FC5CF8091090265
:10222000877FC7CF809108028D7FBDCF8091080244
:102230008B7FB9CF80910802877FB5CF809109024B
:102240008E7FB7CF809109028D7FB3CF8091080236
:102250008F7EA9CF809108028F7DA5CF8091080243
:102260008F7BA1CF0E94D705809108028F779BCFEB
:1022700080910802837F97CF809109028C7F99CF4C
:102280008091080282FB992790F921E0922790FB28
:1022900082F990FB83F987CF80910902982F90955E
:1022A00091708E7F892B90FB81F983CF90910802EA
:1022B000892F8F7B96FF806476CF0E94D7059091FF
:1022C0000802892F97FB87F980586DCF81E00E9423
:1022D000190C80910802909109020E94900B0E94B3
:1022E000D70580E0DF91CF91089580E0F0CF909105
:1022F0000802892F8F7E94FF806155CF909108024C
:10230000892F8E7F90FF81604ECF90910902892F97
:10231000877F93FF88604DCF81E0E4CF0F931F93B9
:10232000CF93DF93C42FD22FFC0185818823C9F07E
:102330004093F9010E9403149093F8018093F701F0
:1023400080E28C0F883040F4C77081E001C0880FB4
:10235000CA95EAF70E949803DF91CF911F910F91E0
:1023600008951091F90114133CC08091F7019091E8
:10237000F8010E942C14883C910598F5C0E2CD0F1D
:102380001D1741F180E2810F883040F4177081E021
:1023900001C0880F1A95EAF70E949F03C83020F009
:1023A000802F0E948F03D8CF91E08D2F877001C0BE
:1023B000990F8A95EAF7892F0E949803802F0E942F
:1023C0008F03D77081E001C0880FDA95EAF70E9489
:1023D0009F03C2CF802F0E948F03C83008F0BCCF6C
:1023E000F0CF80E28C0F883008F0B6CFC77081E064
:1023F00001C0880FCA95EAF7EACF0F93FC01CB0121
:10240000E851FC47E730F10590F5EC52F44E0C949E
:102410000B1B06E221EE41EE6AE17CE70E948E1181
:1024200080E00F91089507E225EE45EE6BE17CE731
:10243000F5CF06E221EE40EE68E17CE7EFCF07E260
:1024400025EE44EE69E17CE7E9CF06E221EE42EEBB
:102450006CE17CE7E3CF07E225EE46EE6DE17CE739
:10246000DDCF08E221E045EE6EE17CE7D7CFFB014E
:10247000858181111092F90181E0D3CF9093FB0106
:102480008093FA010895E091FA01F091FB013097F1
:1024900029F00190F081E02D0995089580E00895DC
:1024A000E091FA01F091FB01309721F00280F38175
:1024B000E02D09950895DC01E091FA01F091FB010E
:1024C000309739F086E08C930480F581E02DCD01C2
:1024D0000995089520910201309103012E5F3F4F2D
:1024E00080910E018823A9F08091080287FF11C016
:1024F00020910001309101012E5F3F4F9DE180E06E
:10250000F90140812F5F3F4F41118F5F9150C0F71C
:10251000089595E0F4CF882321F190910E0199233D
:1025200011F19091080297FF1EC0982F96959695ED
:102530009695803FB0F4E0910001F0910101E90F20
:10254000F11D228130E0877041E050E0BA0102C005
:10255000660F771F8A95E2F72623372381E0232B26
:1025600091F480E008952091020130910301F90176
:102570003296285F3F4F9191981721F0E217F307A9
:10258000D1F7EFCF81E008959C01FC0132968FEFE7
:1025900090E04191461751F08F3F19F4411101C06D
:1025A000892F9F5F9630A9F78F3F09F40895280F70
:1025B000311D87FD3A95F901628308959C01FC0164
:1025C0003296285F3F4F8191861303C0DF01119738
:1025D0001C92E217F307B9F70895FC01862F869540
:1025E00086958695603F60F4E80FF11D677021E0E5
:1025F00030E001C0220F6A95EAF78281822B828344
:102600000895FC01862F869586958695603F80F417
:10261000E80FF11D677081E090E09C0102C0220F7D
:10262000331F6A95E2F7B90160958281682362835E
:102630000895682F80910E01882359F08091080237
:1026400087FF07C080910001909101010E94ED1267
:10265000089580910201909103010E94C41208958F
:10266000682F80910E01882359F08091080287FF1E
:1026700007C080910001909101010E94011308950B
:1026800080910201909103010E94DE1208958091D1
:102690000E01882379F08091080287FF0BC0E0913A
:1026A0000001F091010132968EE1DF011D928A95C1
:1026B000E9F70895E0910201F0910301329686E076
:1026C000F4CF08950E94611308958F5F8093FC01F9
:1026D0000E946213089583E08093FC010E946213BC
:1026E00008950E946513089581E08093FC010E9483
:1026F000621308950E9474130895089508950E9426
:102700007E130895089508950E947D130895CF9330
:102710000E9482130E94E80F0E948313C0E08C2F56
:102720000E94230F892B31F4CF5FC430C1F780E0C2
:10273000CF91089581E0FCCF85B7806885BF85B7CC
:10274000806885BF08951F921FB61F9211248F9332
:102750009F93AF93BF938091FD01811113C080912E
:102760001A0290911B02A0911C02B0911D02419689
:10277000A11DB11D80931A0290931B02A0931C020D
:10278000B0931D02BF91AF919F918F911F901FBE7B
:102790001F90189580912202843031F10E94B60278
:1027A0001092FD0188E190E020E40FB6F894A8951E
:1027B000809360000FBE2093600083B7817F8460A8
:1027C00083BF83B7816083BF7894889583B78E7FFA
:1027D00083BF0FB6F894A8958091600088618093BC
:1027E0006000109260000FBE08950E94D7050E94FD
:1027F000BB02089582E084BD93E095BD9AEF97BD3A
:1028000080936E0008952FB7F89480911A029091EA
:102810001B02A0911C02B0911D022FBF0895A4E0DD
:10282000B0E0E5E1F4E10C94211B8FB7F89420911E
:102830001A0230911B0240911C0250911D02298303
:102840003A834B835C838FBF69817A818B819C81C2
:102850002496E2E00C943D1B9C014FB7F8948091C4
:102860001A0290911B02A0911C02B0911D024FBF51
:10287000821B930B089578941F921FB61F92112408
:102880008F939F93AF93BF9380911A0290911B02F5
:10289000A0911C02B0911D020196A11DB11D809353
:1028A0001A0290931B02A0931C02B0931D02BF91C9
:1028B000AF919F918F911F901FBE1F90189581E03F
:1028C0008093E00080E28093D8001092C9008FE1ED
:1028D0009EE40197F1F700C0000087E090EBDC0177
:1028E00080932B0290932C02A0932D02B0932E0282
:1028F00088E19CE00FB6F894A895809360000FBE25
:1029000090936000FFCF88E19CE00FB6F894A89503
:10291000809360000FBE90936000FFCF809106020D
:10292000089508950895282FCB01BA01309122020D
:102930003430E1F42F702093E9002FEF3091E8005C
:1029400035FD07C035ED3A95F1F700002150211112
:10295000F5CF2091E80025FF09C040E050E00E943B
:1029600089168091E8008E778093E8000895BC0175
:1029700040E250E082E00E9493140895CF93DF93E9
:10298000D82FC92F48E050E0682F792F81E00E94AE
:10299000931488E0ED2FFC2FAEEFB1E001900D9283
:1029A0008A95E1F7DF91CF910895809121028111FD
:1029B00009C00E9411180E946E188091E200846084
:1029C0008093E20008951092210208950E947413EA
:1029D000089560911E0281E0611101C080E00E94B3
:1029E0006B1308959091220281E0943009F080E009
:1029F00060911E020E947113089542E061EC81E033
:102A00000E948D1742E261EC82E00E948D17909146
:102A1000220281E0943009F080E060911E020E9461
:102A20006513089580912402893089F148F4823039
:102A300009F4A0C0833009F45AC0813041F00895F0
:102A40008A3009F487C08B3009F46CC008958091F6
:102A50002302813A09F04AC08091E800877F809381
:102A6000E8008091270290912802892B61F060E0B4
:102A700080E090E070E00E94D8168091E8008B77AB
:102A80008093E800089568E08EEF91E0F3CF8091A5
:102A90002302813259F580912702909128020297F2
:102AA00028F58091E800877F8093E8008091E80016
:102AB00082FF18C09091F3008091F200029731F4E8
:102AC0008091F100813011F0863021F48091F10085
:102AD000809306028091E8008B778093E8000E9443
:102AE000C11704C0809122028111E0CF0895809126
:102AF0002302813AD9F78091270290912802892BED
:102B0000A9F78091E800877F8093E8008091E80032
:102B100080FFFCCF80910E018093F1008091E8004E
:102B20008E77DBCF80912302813201F780912702DB
:102B300090912802892BD1F68091E800877F8093BD
:102B4000E8000E94C1178091250280930E010E9427
:102B5000D705089580912302813241F68091E800E3
:102B6000877F8093E8000E94C1178091260280939E
:102B70000702089580912302813A09F0B7CF80912E
:102B8000E800877F8093E8008091E80080FFFCCF19
:102B900080910702C1CF84B7877F84BF0FB6F894B6
:102BA000A895809160008861809360001092600019
:102BB0000FBE80E890E00FB6F89480936100909388
:102BC00061000FBE0E947A1308950E9411180E949E
:102BD0006E18E2EEF0E080818460808378940E9439
:102BE000F11A089584E091E00E943E1208958091C8
:102BF0002202853031F480912202853019F00E9442
:102C0000F51308950E94CA1380912002882399F336
:102C10000E948713882379F30E9473160E94D705B8
:102C2000EACF08959A014091290250912A020E9408
:102C30001A160895AC01CB01D901252F3327233073
:102C40003105E1F058F421303105C9F12230310568
:102C5000D9F180E090E020E030E01EC02132310563
:102C600021F122323105A9F7892BC1F161307105BB
:102C700081F78BE390E02FE732E00EC0CA0199277D
:102C8000413069F08230910569F0EEE2F2E0892B83
:102C900001F7849190E09F012D933C930895E2E128
:102CA000F2E0F7CFECEFF1E0F4CF892B91F0613057
:102CB000710579F689E090E02DE532E0EDCF82E113
:102CC00090E02DE632E0E8CF8BE390E022E332E0C3
:102CD000E3CF89E090E024E432E0DECF84E490E0CA
:102CE0002AEB32E0D9CF80E189BD82E189BD09B408
:102CF00000FEFDCF8091D8008F7D8093D800809119
:102D0000E00082608093E0008091E00081FDFCCFD4
:102D10000895AF92BF92CF92DF92FF920F931F93CD
:102D2000CF93DF936C01EB018A010E94E017F82E2C
:102D3000811123C00115110539F0F80180819181BD
:102D4000C81BD90BC80ED91EA12CB12C2097A9F0F5
:102D50008091E80085FD22C08091E8008E77809305
:102D6000E80001151105A1F0F801808191818A0D1B
:102D70009B1D9183808385E0F82E8F2DDF91CF916D
:102D80001F910F91FF90DF90CF90BF90AF9008956B
:102D90000E94E0178823E1F2F82EEFCFF60181912F
:102DA0006F018093F1002197FFEFAF1ABF0ACECFDA
:102DB000FC019B018091290290912A0286179707B6
:102DC00018F0672B61F0C90140E0009771F44111E0
:102DD0000CC08091E80082FF35C080E008958091AA
:102DE000E8008E778093E800EECF20912202222324
:102DF000A9F12530A9F12091E80023FD2DC02091F3
:102E0000E80022FDE6CF2091E80020FFDECF3091E0
:102E1000F3002091F200009719F02830310558F0A6
:102E200041E02830310509F040E02091E8002E779C
:102E30002093E800CACF41914093F10001972F5FA2
:102E40003F4FE9CF80912202882341F0853041F045
:102E50008091E80083FFBDCF81E0089582E008956E
:102E600083E00895FC019B018091290290912A0240
:102E70008617970718F0672B61F0C90140E00097AB
:102E800071F441110CC08091E80082FF36C080E0EF
:102E900008958091E8008E778093E800EECF20912E
:102EA00022022223B1F12530B1F12091E80023FD67
:102EB0002EC02091E80022FDE6CF2091E80020FFFF
:102EC000DECF3091F3002091F200009719F0283006
:102ED000310558F041E02830310509F040E02091FB
:102EE000E8002E772093E800CACF44914093F10088
:102EF000319601972F5F3F4FE8CF809122028823C0
:102F000041F0853041F08091E80083FFBCCF81E043
:102F1000089582E0089583E00895982F973028F06F
:102F20008F708093E90081E008959093E900242F49
:102F3000762F50E0981731F07091EC002091ED0061
:102F40005091F00021FD02C09F5FE8CF3091EB006F
:102F50003E7F3093EB003091ED003D7F3093ED00EC
:102F60003091EB0031603093EB007093EC002093D4
:102F7000ED005093F0002091EE0027FDE5CF80E0BA
:102F800008958091230287FF13C08091E80082FF9B
:102F900006C08091E8008B778093E80004C08091A0
:102FA00022028111F2CF0895809122028823D9F361
:102FB0008091E80080FFF8CF8091E8008E77ECCF19
:102FC0002091E4003091E50095E6A9018091EC00A4
:102FD0008170882331F08091E80080FF06C080E096
:102FE00008952091E80022FD1BC0809122028823D1
:102FF00091F0853091F08091EB0085FD10C020911B
:10300000E4003091E5004217530701F3915091110C
:10301000DCCF84E0089582E0089583E0089581E0A4
:1030200008950E9480180E948818E0EEF0E08081E8
:1030300081608083E8EDF0E080818F77808319BC28
:10304000A7EDB0E08C918E7F8C9380818F7E808302
:103050001092210208950F931F93CF93DF930E9444
:1030600080180E948818C8EDD0E088818F77888307
:1030700088818068888388818F7D888319BC1092BD
:10308000220210921E021092200210921F0200EEE5
:1030900010E0F80180818B7F808388818160888344
:1030A00042E060E080E00E948D17E1EEF0E0808178
:1030B0008E7F8083E2EEF0E080818160808380817A
:1030C00088608083F80180818E7F80838881806121
:1030D0008883DF91CF911F910F910895E8EDF0E083
:1030E00080818F7E8083E7EDF0E080818160808346
:1030F00084E082BF81E0809321020E942B18089512
:10310000E8EDF0E080818E7F80831092E2000895E8
:103110001092DA001092E10008951F920F920FB6FC
:103120000F9211242F933F934F935F936F937F934D
:103130008F939F93AF93BF93EF93FF938091E100A1
:1031400082FF0BC08091E20082FF07C08091E10006
:103150008B7F8093E1000E94F01A8091DA0080FF5B
:1031600019C08091D80080FF15C08091DA008E7F51
:103170008093DA008091D90080FF94C080E189BDFE
:1031800082E189BD09B400FEFDCF81E08093220277
:103190000E94D5148091E10080FF19C08091E20067
:1031A00080FF15C08091E2008E7F8093E2008091C5
:1031B000E20080618093E2008091D8008062809379
:1031C000D80019BC85E0809322020E94E914809106
:1031D000E10084FF29C08091E20084FF25C080E1E6
:1031E00089BD82E189BD09B400FEFDCF8091D80080
:1031F0008F7D8093D8008091E1008F7E8093E100E5
:103200008091E2008F7E8093E2008091E2008160F5
:103210008093E20080911E02882309F449C084E073
:10322000809322020E94F2148091E10083FF29C062
:103230008091E20083FF25C08091E100877F809329
:10324000E10082E08093220210921E028091E10050
:103250008E7F8093E1008091E2008E7F8093E20078
:103260008091E20080618093E20042E060E080E0D3
:103270000E948D178091F00088608093F0000E947A
:10328000E614FF91EF91BF91AF919F918F917F9144
:103290006F915F914F913F912F910F900FBE0F90C3
:1032A0001F90189519BC109222020E94E31472CF4D
:1032B0008091E30087FF02C083E0B2CF81E0B0CF0E
:1032C0001F920F920FB60F921124FF920F931F932C
:1032D0002F933F934F935F936F937F938F939F931E
:1032E000AF93BF93CF93DF93EF93FF9309EE10E07B
:1032F000F8018081C091EC00C795CC27C7958F70ED
:10330000FC2EF82A1082C0EFD0E08881877F888366
:1033100078940E94A919F8011082888188608883B6
:10332000CF2DCF70C083FF91EF91DF91CF91BF91EF
:10333000AF919F918F917F916F915F914F913F914D
:103340002F911F910F91FF900F900FBE0F901F9024
:103350001895AAE2B0E0EFEAF9E10C94201B83E2B1
:1033600092E0FC0101962091F100208322E08B3253
:103370009207B9F70E9412158091E80083FF38C0C8
:1033800080912302909124029A3090F5E92FF0E089
:10339000E552F44E0C940B1B803889F0823841F5CD
:1033A000809127028F70873018F58093E900809113
:1033B000EB0085FB882780F91092E90006C0809118
:1033C0001F0290912002911182609091E800977FF6
:1033D0009093E8008093F1001092F1008091E80052
:1033E0008E7723C0811116C080912502813011F1A2
:1033F0008091E80083FF0AC08091E800877F809376
:10340000E8008091EB0080628093EB00AA96E3E0F5
:103410000C943C1B823061F780912502882389F04F
:103420001092E9008091E800877F8093E8000E9475
:10343000C117DECF81E0933009F080E08093200255
:10344000EFCF809127028F702FEF280F263080F664
:103450008093E9002091EB0020FFE2CF933031F41C
:103460008091EB0080628093EB00DACF9091EB00CB
:1034700090619093EB0021E030E0A90102C0440F7D
:10348000551F8A95E2F74093EA001092EA00809176
:10349000EB008860E8CF8111ABCF109125021F7738
:1034A0008091E3008078812B8093E3008091E80095
:1034B000877F8093E8000E94C1178091E80080FF19
:1034C000FCCF8091E30080688093E30083E01111DA
:1034D00001C082E0809322028BCF8058823008F0B6
:1034E00087CF80912502909126028C3D53E095076D
:1034F00099F583E08A838AE289834FB7F894DE01E5
:10350000139620E03EE051E2E32FF0E050935700A5
:10351000849120FF03C082958F703F5F8F708A3047
:10352000C8F0895C90E08D939D932F5F243161F703
:103530004FBF8091E800877F8093E8006AE270E0E7
:10354000CE0101960E94D8168091E8008B77809377
:10355000E8004ECF805DE6CF60912702709128028F
:10356000AE014F5F5F4F0E941216BC01892B09F418
:103570003FCF8091E800877F8093E80089819A811E
:103580000E943217E1CF803809F032CF8091E800F5
:10359000877F8093E80080911E028093F1001ECF08
:1035A000811126CF90912502923008F021CF809191
:1035B000E800877F8093E80090931E020E94C11765
:1035C00080911E02882331F084E0809322020E94C1
:1035D000FD140ECF8091E30087FDF6CF81E0F5CF9B
:1035E0000895CF9380912202882399F08091E90079
:1035F000C091EC00C795CC27C7958F70C82B10924F
:10360000E9008091E80083FD0E94A919CF70C09362
:10361000E900CF910895EE0FFF1F0590F491E02D82
:1036200009942F923F924F925F926F927F928F9266
:103630009F92AF92BF92CF92DF92EF92FF920F9341
:103640001F93CF93DF93CDB7DEB7CA1BDB0B0FB64B
:10365000F894DEBF0FBECDBF09942A883988488808
:103660005F846E847D848C849B84AA84B984C8849E
:10367000DF80EE80FD800C811B81AA81B981CE0F95
:10368000D11D0FB6F894DEBF0FBECDBFED0108957A
:10369000FB01DC0104C08D910190801921F441509F
:1036A0005040C8F7881B990B0895FB01DC0102C04C
:1036B00001900D9241505040D8F70895F999FECFEE
:1036C00092BD81BDF89A992780B50895A8E1B0E030
:1036D00042E050E00C94A21BDC01A40FB51F415046
:1036E000504048F0CB01840F951F2E910E947D1B06
:1036F00041505040D0F70895262FF999FECF92BD42
:1037000081BDF89A019700B4021639F01FBA20BDA6
:103710000FB6F894FA9AF99A0FBE08950396272FD8
:103720000E947D1B0E947C1B252F0E947D1B242F45
:103730000C947D1B0196272F0E947D1B0C947C1BF3
:10374000DC01CB01FC01F999FECF06C0F2BDE1BD61
:10375000F89A319600B40D9241505040B8F7089550
:10376000F894FFCF0A117E111211DC10E01016112F
:10377000E4101A112611F0107711F4102A11F81024
:103780002E115611FC1032115D1102113811401129
:10379000E8101E11EC10221106113C114C1166119B
:1037A0007511D6100E11851119121F12091213125C
:1037B00025122B123112CC19F219F819F219F81935
:0A37C0004B1A6D1AF819C31AD01A3B
:1037CA00B601D6018E14BE14B7149214911401F4E2
:1037DA00F6F73133326697C69490919293F5363460
:0237EA003500A8
:00000001FF
